:020000040800F2
:100000000000022025290008F5210008F72100083A
:10001000F9210008FB210008FD2100080000000074
:10002000000000000000000000000000FF210008A8
:100030000122000800000000032200080522000839
:100040007529000875290008752900087529000818
:100050007529000875290008752900087529000808
:1000600075290008752900087529000875290008F8
:1000700075290008752900087529000875290008E8
:1000800075290008752900087529000875290008D8
:1000900075290008752900087529000875290008C8
:1000A00075290008752900087529000875290008B8
:1000B00075290008752900087529000875290008A8
:1000C0007529000875290008752900087529000898
:1000D0007529000875290008752900087529000888
:1000E0007529000875290008752900087529000878
:1000F0007529000875290008752900087529000868
:100100007529000875290008752900087529000857
:100110007529000875290008752900087529000847
:100120007529000875290008752900087529000837
:100130007529000800000000000000007529000873
:100140007529000875290008752900087529000817
:100150007529000875290008752900087529000807
:1001600075290008752900087529000875290008F7
:10017000752900087529000875290008000000008D
:1001800000000000752900080000000000000000C9
:100190007529000800000000000000007529000813
:1001A00000000000000000000000000075290008A9
:1001B00075290008752900087529000875290008A7
:0401C0007529000895
:1001C80010B5054C237833B9044B13B10448AFF389
:1001D80000800123237010BD1000002000000000E3
:1001E800C02900080C4B43B10C480D4910B5AFF3BA
:1001F80000800C48036823B910BD0A48036833B966
:100208007047094B002BF7D0BDE810401847064B44
:10021800002BF5D0184700BF00000000C0290008D7
:1002280014000020100000200000000081F00041B0
:1002380002E000BF83F0004330B54FEA41044FEAC3
:10024800430594EA050F08BF90EA020F1FBF54EA5E
:10025800000C55EA020C7FEA645C7FEA655C00F0FA
:10026800E2804FEA5454D4EB5555B8BF6D420CDDCB
:100278002C4480EA020281EA030382EA000083EA4E
:10028800010180EA020281EA0303362D88BF30BDEE
:1002980011F0004F4FEA01314FF4801C4CEA113144
:1002A80002D0404261EB410113F0004F4FEA0333A3
:1002B8004CEA133302D0524263EB430394EA050F2E
:1002C80000F0A780A4F10104D5F1200E0DDB02FA9D
:1002D8000EFC22FA05F2801841F1000103FA0EF231
:1002E800801843FA05F359410EE0A5F120050EF1F7
:1002F800200E012A03FA0EFC28BF4CF0020C43FA28
:1003080005F3C01851EBE37101F0004507D54FF034
:10031800000EDCF1000C7EEB00006EEB0101B1F584
:10032800801F1BD3B1F5001F0CD349085FEA3000CA
:100338004FEA3C0C04F101044FEA445212F5800FD5
:1003480080F09A80BCF1004F08BF5FEA500C50F172
:10035800000041EB045141EA050130BD5FEA4C0C55
:10036800404141EB010111F4801FA4F10104E9D1DE
:1003780091F0000F04BF01460020B1FA81F308BFD5
:100388002033A3F10B03B3F120020CDA0C3208DDA1
:1003980002F1140CC2F10C0201FA0CF021FA02F17C
:1003A8000CE002F11402D8BFC2F1200C01FA02F1EC
:1003B80020FA0CFCDCBF41EA0C019040E41AA2BF11
:1003C80001EB0451294330BD6FEA04041F3C1CDAD9
:1003D8000C340EDC04F11404C4F1200220FA04F0F9
:1003E80001FA02F340EA030021FA04F345EA0301A3
:1003F80030BDC4F10C04C4F1200220FA02F001FA65
:1004080004F340EA0300294630BD21FA04F02946E6
:1004180030BD94F0000F83F4801306BF81F480117F
:100428000134013D4EE77FEA645C18BF7FEA655CF2
:1004380029D094EA050F08BF90EA020F05D054EAC4
:10044800000C04BF1946104630BD91EA030F1EBFC9
:100458000021002030BD5FEA545C05D140004941CD
:1004680028BF41F0004130BD14F580043CBF01F5C0
:10047800801130BD01F0004545F0FE4141F47001A6
:100488004FF0000030BD7FEA645C1ABF1946104681
:100498007FEA655C1CBF0B46024650EA013406BF82
:1004A80052EA033591EA030F41F4002130BD00BF41
:1004B80090F0000F04BF0021704730B54FF48064FE
:1004C80004F132044FF000054FF0000150E700BF7F
:1004D80090F0000F04BF0021704730B54FF48064DE
:1004E80004F1320410F0004548BF40424FF00001CB
:1004F8003EE700BF42004FEAE2014FEA31014FEA0E
:1005080002701FBF12F07F4393F07F4F81F060515C
:10051800704792F0000F14BF93F07F4F704730B5CB
:100528004FF4607401F0004521F0004120E700BF5E
:1005380050EA010208BF704730B54FF000050AE0E5
:1005480050EA010208BF704730B511F0004502D5E6
:10055800404261EB41014FF4806404F132045FEAE8
:10056800915C3FF4DCAE4FF003025FEADC0C18BF8D
:1005780003325FEADC0C18BF033202EBDC02C2F183
:10058800200300FA03FC20FA02F001FA03FE40EA15
:100598000E0021FA02F11444C1E600BF70B54FF015
:1005A800FF0C4CF4E06C1CEA11541DBF1CEA1355F7
:1005B80094EA0C0F95EA0C0F00F0DEF82C4481EA5F
:1005C800030621EA4C5123EA4C5350EA013518BF7F
:1005D80052EA033541F4801143F4801338D0A0FB6C
:1005E80002CE4FF00005E1FB02E506F00042E0FB19
:1005F80003E54FF00006E1FB03569CF0000F18BF1F
:100608004EF0010EA4F1FF04B6F5007F64F54074C6
:1006180004D25FEA4E0E6D4146EB060642EAC62159
:1006280041EA55514FEAC52040EA5E504FEACE2EC6
:10063800B4F1FD0C88BFBCF5E06F1ED8BEF1004FC9
:1006480008BF5FEA500E50F1000041EB045170BD45
:1006580006F0004646EA010140EA020081EA030189
:10066800B4EB5C04C2BFD4EB0C0541EA045170BD85
:1006780041F480114FF0000E013C00F3AB8014F1FF
:10068800360FDEBF002001F0004170BDC4F1000448
:10069800203C35DA0C341BDC04F11404C4F12005C9
:1006A80000FA05F320FA04F001FA05F240EA020024
:1006B80001F0004221F0004110EBD37021FA04F65A
:1006C80042EB06015EEA430E08BF20EAD37070BD14
:1006D800C4F10C04C4F1200500FA04F320FA05F073
:1006E80001FA04F240EA020001F0004110EBD37075
:1006F80041F100015EEA430E08BF20EAD37070BDE5
:10070800C4F1200500FA05F24EEA020E20FA04F3BD
:1007180001FA05F243EA020321FA04F001F000416C
:1007280021FA04F220EA020000EBD3705EEA430EDD
:1007380008BF20EAD37070BD94F0000F0FD101F00C
:100748000046400041EB010111F4801F08BF013C45
:10075800F7D041EA060195F0000F18BF704703F083
:100768000046520043EB030313F4801F08BF013D0A
:10077800F7D043EA0603704794EA0C0F0CEA1355C6
:1007880018BF95EA0C0F0CD050EA410618BF52EA80
:100798004306D1D181EA030101F000414FF0000086
:1007A80070BD50EA410606BF1046194652EA430694
:1007B80019D094EA0C0F02D150EA013613D195EA08
:1007C8000C0F05D152EA03361CBF104619460AD150
:1007D80081EA030101F0004141F0FE4141F470015A
:1007E8004FF0000070BD41F0FE4141F4780170BD4A
:1007F80070B54FF0FF0C4CF4E06C1CEA11541DBFAF
:100808001CEA135594EA0C0F95EA0C0F00F0A7F8B0
:10081800A4EB050481EA030E52EA03354FEA0131DD
:1008280000F088804FEA03334FF0805545EA1313F0
:1008380043EA12634FEA022245EA111545EA1065B8
:100848004FEA00260EF000419D4208BF964244F14F
:10085800FD0404F5407402D25B084FEA3202B61A6E
:1008680065EB03055B084FEA32024FF480104FF442
:10087800002CB6EB020E75EB030E22BFB61A7546B6
:1008880040EA0C005B084FEA3202B6EB020E75EB49
:10089800030E22BFB61A754640EA5C005B084FEAB1
:1008A8003202B6EB020E75EB030E22BFB61A75467E
:1008B80040EA9C005B084FEA3202B6EB020E75EB89
:1008C800030E22BFB61A754640EADC0055EA060E4A
:1008D80018D04FEA051545EA16754FEA06164FEA8D
:1008E800C30343EA52734FEAC2025FEA1C1CC0D139
:1008F80011F4801F0BD141EA00014FF000004FF0C6
:10090800004CB6E711F4801F04BF01430020B4F186
:10091800FD0C88BFBCF5E06F3FF6AFAEB5EB030C3E
:1009280004BFB6EB020C5FEA500C50F1000041EB3B
:10093800045170BD0EF0004E4EEA113114EB5C0408
:10094800C2BFD4EB0C0541EA045170BD41F48011DB
:100958004FF0000E013C90E645EA060E8DE60CEAE3
:10096800135594EA0C0F08BF95EA0C0F3FF43BAF00
:1009780094EA0C0F0AD150EA01347FF434AF95EAB7
:100988000C0F7FF425AF104619462CE795EA0C0F9B
:1009980006D152EA03353FF4FDAE1046194622E768
:1009A80050EA410618BF52EA43067FF4C5AE50EA42
:1009B80041047FF40DAF52EA43057FF4EBAE12E732
:1009C8004FEA4102B2F1E04324BFB3F5001CDCF169
:1009D800FE5C0DD901F0004C4FEAC0024CEA5070A1
:1009E800B2F1004F40EB830008BF20F001007047D0
:1009F80011F0804F21D113F13872BCBF01F00040D3
:100A0800704741F480114FEA5252C2F11802C2F104
:100A1800200C10FA0CF320FA02F018BF40F0010085
:100A28004FEAC1234FEAD32303FA0CFC40EA0C0037
:100A380023FA02F34FEA4303CCE77FEA625307D174
:100A480050EA01331EBF4FF0FE4040F440007047AB
:100A580001F0004040F0FE4040F40000704700BF45
:100A680053B94AB9002908BF00281CBF4FF0FF310D
:100A78004FF0FF3000F07AB9ADF1080C6DE904CE03
:100A880000F006F8DDF804E0DDE9022304B0704761
:100A98002DE9F0478C460D460446089E002B51D19F
:100AA8008A4217466DD9B2FA82FEBEF1000F0BD00A
:100AB800CEF1200C01FA0EF520FA0CFC02FA0EF722
:100AC8004CEA050C00FA0EF44FEA174A250CBCFB59
:100AD800FAF81FFA87F90AFB18CC45EA0C4508FB17
:100AE80009F3AB420AD9ED1908F1FF3280F02381EE
:100AF800AB4240F22081A8F102083D44ED1AA4B2AD
:100B0800B5FBFAF00AFB105544EA054400FB09F965
:100B1800A14509D9E41900F1FF3380F00A81A14504
:100B280040F2078102383C44A4EB090440EA08403B
:100B38000021002E61D024FA0EF400233460736083
:100B4800BDE8F0878B4207D9002E54D0002186E8F3
:100B580021000846BDE8F087B3FA83F1002940F088
:100B68008E80AB4202D3824200F2FA80841A65EB8F
:100B780003050120AC46002E3FD086E81010BDE8E2
:100B8800F08712B90127B7FBF2F7B7FA87FEBEF173
:100B9800000F34D1EB1B3A0C1FFA87FC0121B3FB81
:100BA800F2F8250C02FB183345EA03450CFB08F361
:100BB800AB4207D9ED1908F1FF3002D2AB4200F27F
:100BC800D1808046ED1AA3B2B5FBF2F002FB1055B6
:100BD80043EA05440CFB00FCA44507D9E41900F1DD
:100BE800FF3302D2A44500F2B8801846A4EB0C04E7
:100BF80040EA08409DE731463046BDE8F087CEF12F
:100C0800200405FA0EF307FA0EF720FA04F83A0C56
:100C180025FA04F448EA0308B4FBF2F14FEA184550
:100C280002FB11441FFA87FC45EA044501FB0CF35B
:100C3800AB4200FA0EF409D9ED1901F1FF3080F04A
:100C48008A80AB4240F2878002393D44EB1A1FFA92
:100C580088F5B3FBF2F002FB103345EA034500FBCD
:100C68000CF3AB4207D9ED1900F1FF386FD2AB4254
:100C78006DD902383D44EB1A40EA01418FE7C1F1D2
:100C8800200722FA07F88B4005FA01F448EA030323
:100C980020FA07FE4FEA134CFD404EEA040EB5FB5E
:100CA800FCF94FEA1E440CFB19551FFA83F844EA75
:100CB800054509FB08F4AC4202FA01F200FA01FA10
:100CC80008D9ED1809F1FF3043D2AC4241D9A9F156
:100CD80002091D442D1B1FFA8EFEB5FBFCF00CFB10
:100CE80010554EEA054400FB08F8A04507D9E4185A
:100CF80000F1FF3529D2A04527D902381C4440EA23
:100D08000940A4EB0804A0FB02894C45C6464D46A1
:100D180015D312D056B1BAEB0E0364EB050404FAEE
:100D280007F7CB401F43CC40376074600021BDE813
:100D3800F0871846F8E69046E0E6C245EAD2B8EBF6
:100D4800020E69EB03050138E4E72846D7E7404679
:100D580091E78146BEE7014678E702383C4445E71B
:100D6800084608E7A8F102083D442BE7704700BF92
:100D780010B504460E4B18784FF47A73B3FBF0F3B2
:100D88000C4A1068B0FBF3F000F09AF868B90F2C21
:100D980001D9012010BD002221464FF0FF3000F09C
:100DA8005DF8034B5C60002010BD012010BD00BF42
:100DB800000000200C00002008B50B4B1A6842F414
:100DC80000721A601A6842F480621A601A6842F463
:100DD80080721A60032000F02FF80020FFF7C8FF88
:100DE80001F086F9002008BD003C0240034A116862
:100DF800034B1B780B441360704700BF3C00002076
:100E080000000020014B1868704700BF3C0000201C
:100E180038B50446FFF7F6FF0546B4F1FF3F02D0A8
:100E2800044B1B781C44FFF7EDFF401B8442FAD8A3
:100E380038BD00BF00000020074AD36823F4E063F0
:100E48001B041B0C000200F4E060184340F0BF6074
:100E580040F40030D060704700ED00E030B4164B2D
:100E6800DB68C3F30223C3F10704042C28BF04245E
:100E78001D1D062D17D9033B012505FA04F4013C75
:100E88002140994005FA03F3013B13401943002818
:100E98000BDB0901C9B200F1604000F5614080F840
:100EA800001330BC70470023E6E700F00F0009018B
:100EB800C9B2024B1954F4E700ED00E014ED00E06C
:100EC8000138B0F1807F0AD2064B5860F021064AFB
:100ED80082F823100020986007221A6070470120CA
:100EE800704700BF10E000E000ED00E0042805D0E6
:100EF800054A136823F0040313607047024A136815
:100F080043F004031360704710E000E0704708B531
:100F1800FFF7FCFF08BD0000F0B583B0002498E09F
:100F28004FEAD40E0EF1080E50F82E2004F00706F2
:100F3800B6000F27B74022EA07020F6907FA06F63C
:100F4800324340F82E2094E086681640CF6807FAAE
:100F58000EF73E438660466826EA03034E68C6F3EA
:100F68000016A64033434360C3681A408B6803FAEF
:100F78000EF31A43C2604B6813F0805F68D00023F9
:100F88000193514B5A6C42F480425A645B6C03F4EF
:100F980080430193019BA3089E1C4C4A52F82620CB
:100FA80004F003064FEA860E0F2606FA0EF622EA2A
:100FB8000602474FB84279D0464EB04278D006F57F
:100FC8008066B04276D006F58066B04274D006F5E9
:100FD8008066B04272D006F58066B04270D006F5E1
:100FE8008066B04260D0072606FA0EF63243023316
:100FF800364E46F82320384B1A68EB4302EA0306BC
:101008004F6817F4803F01D045EA0206324A16605D
:10101800526803EA02064F6817F4003F01D045EA18
:1010280002062D4A5660926803EA02064F6817F4D2
:10103800801F01D045EA0206274A9660D26813400D
:101048004E6816F4001F01D045EA0203224AD36015
:1010580001340F2C36D80123A3400A6803EA02059D
:10106800AB42F5D14A68022A3FF45AAF122A3FF43C
:1010780057AF06684FEA440E032202FA0EF2D24333
:1010880016404F6807F0030707FA0EF73E4306605D
:101098004E68771E012F7FF657AF112E3FF454AFDD
:1010A800122E7FF461AF4FE706269DE700269BE7E7
:1010B800012699E7022697E7032695E7042693E792
:1010C800052691E703B0F0BD003802400038014022
:1010D8000000024000040240003C014012B909042B
:1010E8008161704781617047436959404161704728
:1010F800002800F09D8070B504464F4B1B6803F034
:101108000F038B4209D2CBB24B4A1370136803F01A
:101118000F03994201D0012070BD236813F0020F1C
:1011280017D013F0040F04D0444A936843F4E053F3
:101138009360236813F0080F04D0404A936843F47F
:10114800604393603D4A936823F0F003A06803432B
:1011580093600D46236813F0010F32D06368012BAA
:1011680021D09A1E012A25D9344A126812F0020F9A
:1011780060D032498A6822F0030213438B60FFF77C
:1011880041FE06462D4B9B6803F00C036268B3EBE7
:10119800820F16D0FFF736FE801B41F28833984243
:1011A800F0D9032070BD254A126812F4003FE0D13F
:1011B800012070BD214A126812F0007FD9D10120A8
:1011C80070BD1D4B1B6803F00F039D4209D2EAB2A4
:1011D800194B1A701B6803F00F039D4201D00120C0
:1011E80070BD236813F0040F06D0144A936823F4E3
:1011F800E053E1680B439360236813F0080F07D0AE
:101208000E4A936823F46043216943EAC10393605B
:1012180000F020F8094B9B68C3F30313084AD35C1A
:10122800D840084B18600020FFF7A2FD002070BDD1
:1012380001207047012070BD003C02400038024088
:10124800D82900080C000020014B1868704700BF1F
:101258000C000020F8B55C4B9B6803F00C03082BCE
:1012680006D00C2B5AD0042B00F0AC805748F8BDA0
:10127800554B5A6802F03F025B6813F4800F2AD07E
:10128800514B5B68C3F388131E4600275C01002599
:10129800E41A65EB0705A90141EA9461A001001B66
:1012A80061EB0501CB0043EA5073C400A01943EB7E
:1012B80007014B0243EAD053440220461946002353
:1012C800FFF7CEFB404B5B68C3F3014301335B0080
:1012D800B0FBF3F0F8BD3C4B5B68C3F388131E46C4
:1012E80000275C010025E41A65EB0705A90141EA1E
:1012F8009461A001001B61EB0501CB0043EA507328
:10130800C400A01943EB07018B0243EA90538402FF
:10131800204619460023FFF7A3FBD3E72A4B5A6858
:1013280002F03F025B6813F4800F28D0264B5B68FD
:10133800C3F388131E4600275C010025E41A65EBF9
:101348000705A90141EA9461A001001B61EB0501B1
:10135800CB0043EA5073C400A01943EB07014B02CA
:1013680043EAD0534402204619460023FFF778FB8E
:10137800154B5B68C3F30273B0FBF3F0F8BD124B77
:101388005B68C3F388131E4600275C010025E41A36
:1013980065EB0705A90141EA9461A001001B61EB17
:1013A8000501CB0043EA5073C400A01943EB0701C1
:1013B8008B0243EA90538402204619460023FFF724
:1013C8004FFBD5E70248F8BD003802400024F4007E
:1013D80000127A0070B582B00446036813F0010F5A
:1013E80041D0A64B9B6803F00C03042B32D0A34BCF
:1013F8009B6803F00C03082B27D0A04B9B6803F0D5
:101408000C030C2B59D06368B3F5803F5BD0B3F560
:10141800A02F5ED0994B1A6822F480321A601A689D
:1014280022F480221A606368002B5CD0FFF7EAFC84
:101438000546924B1B6813F4003F14D1FFF7E2FCFA
:10144800401B6428F5D903209DE18C4B5B6813F49D
:10145800800FD2D0894B1B6813F4003F03D0636818
:10146800002B00F08D81236813F0020F67D0834BA7
:101478009B6813F00C0F4AD0804B9B6803F00C0359
:10148800082B3FD07D4B9B6803F00C030C2B48D0F6
:10149800E368002B74D00122794B1A60FFF7B2FC85
:1014A8000546764B1B6813F0020F60D1FFF7AAFCC4
:1014B800401B0228F5D9032065E1704B5B6813F4E3
:1014C800800FA0D0C6E76D4A136843F480331360D9
:1014D800A9E76A4B1A6842F480221A601A6842F433
:1014E80080321A609FE7FFF78DFC0546634B1B6847
:1014F80013F4003FB7D0FFF785FC401B6428F5D9EB
:10150800032040E15D4B5B6813F4800FBAD15B4B5D
:101518001B6813F0020F0AD0E368012B07D00120E3
:1015280031E1564B5B6813F4800FB1D1EFE7534AB2
:10153800136823F0F803216943EAC10313602368A1
:1015480013F0080F40D0636963B301224D4B1A6052
:10155800FFF758FC0546494B5B6F13F0020F33D178
:10156800FFF750FC401B0228F5D903200BE1434A42
:10157800136823F0F803216943EAC1031360DEE727
:1015880000223F4B1A60FFF73DFC05463B4B1B68AA
:1015980013F0020FD3D0FFF735FC401B0228F5D912
:1015A8000320F0E00022374B1A60FFF72BFC0546BA
:1015B800324B5B6F13F0020F06D0FFF723FC401B82
:1015C8000228F5D90320DEE0236813F0040F79D050
:1015D8002A4B1B6C13F0805F33D100230193274BF8
:1015E8001A6C42F080521A641B6C03F0805301930A
:1015F800019B0125244B1B6813F4807F23D0A3682B
:10160800012B34D0052B41D01C4B1A6F22F001025C
:101618001A671A6F22F004021A67A368002B3FD0DA
:10162800FFF7F0FB0646154B1B6F13F0020F48D16E
:10163800FFF7E8FB801B41F288339842F3D9032077
:10164800A1E00025D6E7104A136843F480731360BD
:10165800FFF7D8FB06460C4B1B6813F4807FCED1EE
:10166800FFF7D0FB801B0228F5D903208BE0034A43
:10167800136F43F001031367CFE700BF0038024040
:1016880000004742800E474200700040404B1A6FEE
:1016980042F004021A671A6F42F001021A67BCE7A7
:1016A800FFF7B0FB06463A4B1B6F13F0020F08D04A
:1016B800FFF7A8FB801B41F288339842F3D9032037
:1016C80061E0E5B9A369002B5CD0314A926802F069
:1016D8000C02082A59D0022B17D000222D4B1A6071
:1016E800FFF790FB04462A4B1B6813F0007F45D098
:1016F800FFF788FB001B0228F5D9032043E0244AA2
:10170800136C23F080531364DCE70022214B1A602A
:10171800FFF778FB05461E4B1B6813F0007F06D0C9
:10172800FFF770FB401B0228F5D903202BE0E36983
:10173800226A1343626A43EA8213A26A5208013A90
:1017480043EA0243E26A43EA0263226B43EA027312
:101758000F4A536001220F4B1A60FFF753FB0446F0
:101768000B4B1B6813F0007F06D1FFF74BFB001BE8
:101778000228F5D9032006E0002004E0002002E05A
:10178800012000E0002002B070BD0120FBE700BF8F
:101798000038024060004742F8B505460F46164635
:1017A8001C463BE02CB1FFF72DFB069BC01A844278
:1017B80034D82A68536823F0E00353606B68B3F5A4
:1017C800827F0BD0AB6AB3F5005F14D0012385F894
:1017D8005130002385F850300320F8BDAB68B3F5CD
:1017E800004F02D0B3F5806FECD12A68136823F05C
:1017F80040031360E6E72A68136823F400531B04C8
:101808001B0C13602A68136843F400531360DDE768
:101818000123B34209D0B4F1FF3FC3D12B689B68C1
:1018280037EA0303F4D00023F3E70020F8BD10B52E
:1018380082B0044600920B4600228021FFF7ACFFDD
:10184800034620B1636D43F0200363650323184604
:1018580002B010BD00283BD010B5044600238362B7
:1018680090F85130002B2ED0022384F85130226892
:10187800136823F04003136022686368A1680B4370
:10188800E1680B4321690B4361690B43A16901F4CA
:1018980000710B43E1690B43216A0B43A16A0B43B7
:1018A80013602268638B03F00403616A0B4353607F
:1018B8002268D36923F40063D361002060650123A3
:1018C80084F8513010BD80F8503000F05BFCCBE755
:1018D800012070472DE9F04184B01D4690F8503042
:1018E800012B04D10223184604B0BDE8F081044658
:1018F8000E469046012380F85030FFF783FA0746DA
:1019080094F85130DBB2012B07D00223012284F86E
:101918005120002284F85020E5E7002E00F0A48032
:10192800B8F1000F00F0A280032384F8513000239F
:1019380063652663A4F83480A4F83680A363A3877C
:10194800E38763642364A368B3F5004F1CD023685E
:101958001A6812F0400F03D11A6842F040021A6068
:10196800E368B3F5006F15D063681BB1E38E9BB2D3
:10197800012B44D1236816F8012B1A73E38E9BB20E
:10198800013B9BB2E3863AE02268136843F4804344
:101998001360DCE763681BB1E38E9BB2012B13D1A4
:1019A800236836F8022BDA60E38E9BB2013B9BB2C8
:1019B800E38609E0002D5BD0B5F1FF3F04D0FFF7C7
:1019C80021FAC01B854255D9E38E9BB243B32368E5
:1019D8009A6812F0020FEDD036F8022BDA60E38E27
:1019E8009BB2013B9BB2E386EEE7002D44D0B5F1F4
:1019F800FF3F04D0FFF706FAC01B85423ED9E38EAD
:101A08009BB26BB123689A6812F0020FEDD016F8FA
:101A1800012B1A73E38E9BB2013B9BB2E386EEE780
:101A280000972B46012202212046FFF7B5FE08B198
:101A380003236BE73A4629462046FFF7F8FE03469C
:101A480018B120236365012360E7A26832B90392C5
:101A58002268D168039192680392039A626D002A02
:101A68003FF454AF012351E701234FE701234DE72A
:101A780003234BE7032349E7032347E7032345E70A
:101A88002DE9F04385B098460C9D90F85030012B15
:101A980004D10223184605B0BDE8F08304460F467A
:101AA8001646012380F85030FFF7ACF9814694F8C8
:101AB8005130DBB26268012B12D0B2F5827F07D0B9
:101AC8000223012284F85120002284F85020E1E703
:101AD800A268002A40F0E980042B01D00223F0E735
:101AE800002F00F0E480002E00F0E380B8F1000F32
:101AF80000F0E18094F85130DBB2012B2CD00023A8
:101B08006365A663A4F83E80A4F83C802763A4F824
:101B18003680A4F834802364636423681A6812F05A
:101B2800400F03D11A6842F040021A60E368B3F527
:101B3800006F15D063681BB1E38E9BB2012B08D1EF
:101B4800236817F8012B1A73E38E9BB2013B9BB2F3
:101B5800E3864FF0010869E0052384F85130CEE7A9
:101B680063681BB1E38E9BB2012B08D1236837F859
:101B7800022BDA60E38E9BB2013B9BB2E3864FF007
:101B880001081AE0E38F9BB273B123689A6812F0D8
:101B9800010F09D0DB6826F8023BE38F9BB2013BBB
:101BA8009BB2E3874FF00108B5F1FF3F05D0FFF77F
:101BB80029F9A0EB090085427FD9E38E9BB21BB9B6
:101BC800E38F9BB2002B4ED0B8F1000FDAD0E38E32
:101BD8009BB2002BD6D023689A6812F0020FD1D09E
:101BE80037F8022BDA60E38E9BB2013B9BB2E386A7
:101BF8004FF00008C6E7E38F9BB273B123689A6879
:101C080012F0010F09D0DB683370E38F9BB2013B00
:101C18009BB2E38701364FF00108B5F1FF3F05D0CD
:101C2800FFF7F0F8A0EB0900854248D9E38E9BB294
:101C380013B9E38F9BB2B3B1B8F1000FDBD0E38ED9
:101C48009BB2002BD7D023689A6812F0020FD2D02B
:101C58003A781A73E38E9BB2013B9BB2E386013755
:101C68004FF00008C7E7CDF800902B46012202216B
:101C78002046FFF791FD08B1032322E74A4629468B
:101C88002046FFF7D4FD034618B1202363650123DE
:101C980017E7A268002A7FF414AF03922268D1687C
:101CA800039192680392039A0BE7022309E7012341
:101CB80007E7012305E7012303E7032301E70323DC
:101CC800FFE62DE9F04182B004460D4690461E46D7
:101CD8004368B3F5827F07D094F85030012B0FD1B9
:101CE800022002B0BDE8F0818368002BF4D1042300
:101CF80080F85130009613460A46FFF7C1FEF0E718
:101D0800012384F85030FFF77DF8074694F85130E6
:101D1800DBB2012B07D00220012384F851300023C5
:101D280084F85030DDE7002D72D0B8F1000F71D083
:101D3800042384F8513000236365A563A4F83C802C
:101D4800A4F83E802363A386E38623646364A368C0
:101D5800B3F5004F0BD023681A6812F0400F03D177
:101D68001A6842F040021A60E36883B12AE02268E8
:101D7800136823F480431360EDE7002E4CD0B6F1CE
:101D8800FF3F04D0FFF73EF8C01B864246D9E38FD9
:101D98009BB243B323689A6812F0010FEDD01B7B06
:101DA80005F8013BE38F9BB2013B9BB2E387EEE76B
:101DB800002E35D0B6F1FF3F04D0FFF723F8C01B43
:101DC80086422FD9E38F9BB26BB123689A6812F0D1
:101DD800010FEDD0DB6825F8023BE38F9BB2013B96
:101DE8009BB2E387EEE76368B3F5827F03D0636D48
:101DF800D3B9002090E7A368B3F5004F02D0B3F53C
:101E0800806FF4D12268136823F040031360EEE773
:101E1800012081E701207FE703207DE703207BE79E
:101E2800032079E7032077E7012075E7F0B589B04B
:101E3800002400941F4B1A6B42F080021A631A6B3D
:101E480002F080020092009A01941A6B42F001029B
:101E58001A631A6B02F001020192019A02941A6B3A
:101E680042F002021A631B6B03F002030293029B07
:101E7800114F224621213846FFF730F90F4D2246EF
:101E880020212846FFF72AF92123039301260496E7
:101E98000594069403A93846FFF73EF820230393D8
:101EA800049605940323069303A92846FFF734F8FC
:101EB80009B0F0BD003802400000024000040240B2
:101EC800FEE7000008B50E480E4B03604FF482731E
:101ED800436000238360C360036143614FF4007271
:101EE8008261C3610362436283620A23C362FFF7AC
:101EF800B1FC00B908BDE2210348FFF7E1FF00BFCC
:101F08007C00002000300140F029000800B595B0A1
:101F1800002200922B4B196C41F0805119641B6C04
:101F280003F080530093009B019227490B6823F428
:101F3800404343F480430B600B6803F44043019330
:101F4800019B0223079301210A9110210B910D9304
:101F58000E9208220F92402210921193129313931B
:101F680007A8FFF737FA20BB0F2302930223039336
:101F7800802304934FF4A05305934FF480530693A2
:101F8800012102A8FFF7B4F8B8B9FFF75DF90F4BC4
:101F9800A3FB00308009FEF793FF0420FEF7A6FF9D
:101FA800002211464FF0FF30FEF758FF15B05DF8DC
:101FB80004FBB2210648FFF783FFC0210448FFF75E
:101FC8007FFF00BF0038024000700040D34D621010
:101FD800F02900080000000008B5FEF7EDFEFFF745
:101FE80095FFFFF723FFFFF76DFF374B00225A607D
:101FF8003648374A0260436000F0BEFA354C0A2280
:102008002221204600F0B8FB334B187020213348BA
:10201800FFF76AF82278324B1A7062785A70A27801
:102028009A70E278DA7022791A7162795A71A27913
:102038009A71E279DA71E07BA37B43EA0020FEF72C
:1020480047FA1DA3D3E90023FEF7A8FA1CA3D3E996
:102058000023FEF7EFF8FEF7B3FC224B1860E07A96
:10206800A37A43EA0020FEF733FA13A3D3E9002347
:10207800FEF794FA12A3D3E90023FEF7DBF8FEF784
:102088009FFC194B1860607B237B43EA0020FEF716
:102098001FFA09A3D3E90023FEF780FA08A3D3E9BE
:1020A8000023FEF7C7F8FEF78BFC104B186064207E
:1020B800FEF7AEFEA2E700BF7B14AE47E17A943F7D
:1020C8006666666666127140D400002048000020EB
:1020D8007C0000205800002008000020000002407A
:1020E8002C00002054000020500000204000002058
:1020F80010B582B000240094214B5A6C42F48042FF
:102108005A645A6C02F480420092009A01941A6C44
:1021180042F080521A641B6C03F080530193019BB8
:102128000320FEF789FE224621466FF00B00FEF7DA
:1021380095FE224621466FF00A00FEF78FFE2246E2
:1021480021466FF00900FEF789FE224621466FF00E
:102158000400FEF783FE224621466FF00300FEF7D7
:102168007DFE224621466FF00100FEF777FE2246EB
:1021780021464FF0FF30FEF771FE02B010BD00BFE0
:10218800003802400268164B9A4200D07047F0B5FA
:1021980087B00024009403F584335A6C42F48052CB
:1021A8005A645B6C03F480530093009BC023019333
:1021B800022702970394032604960525059501A98D
:1021C8000848FEF7A9FE0823019302970394049692
:1021D800059501A90448FEF79FFE07B0F0BD00BFB2
:1021E8000030014000000240000402407047FEE752
:1021F800FEE7FEE7FEE770477047704708B5FEF751
:10220800F5FDFEF784FE08BD08B50022202102482E
:10221800FEF764FF08BD00BF0004024008B50122B4
:1022280020210248FEF75AFF08BD00BF0004024003
:1022380000B583B081238DF804308DF80500FFF7D1
:10224800E3FF064B18686423022201A90068FFF720
:1022580041FBFFF7E3FF03B05DF804FB3800002003
:1022680030B583B0054686238DF80430C0F30743A4
:102278008DF80530FFF7C8FF164C2068642302224A
:1022880001A90068FFF726FBFFF7C8FF87238DF831
:102298000430C5F307238DF80530FFF7B5FF206834
:1022A8006423022201A90068FFF714FBFFF7B6FFB9
:1022B80088238DF804308DF80550FFF7A5FF2068B6
:1022C8006423022201A90068FFF704FBFFF7A6FFB9
:1022D80003B030BD3800002000B583B089238DF8E5
:1022E80004308DF80500FFF78FFF064B186864234C
:1022F800022201A90068FFF7EDFAFFF78FFF03B08C
:102308005DF804FB3800002000B583B08A238DF8FF
:1023180004308DF80500FFF777FF064B1868642333
:10232800022201A90068FFF7D5FAFFF777FF03B08B
:102338005DF804FB3800002000B583B08B238DF8CE
:1023480004308DF80500FFF75FFF064B186864231B
:10235800022201A90068FFF7BDFAFFF75FFF03B08B
:102368005DF804FB3800002000B583B08C238DF89D
:1023780004308DF80500FFF747FF064B1868642303
:10238800022201A90068FFF7A5FAFFF747FF03B08B
:102398005DF804FB3800002000B583B08D238DF86C
:1023A80004308DF80500FFF72FFF064B18686423EB
:1023B800022201A90068FFF78DFAFFF72FFF03B08B
:1023C8005DF804FB3800002000B583B08F238DF83A
:1023D80004308DF80500FFF717FF064B18686423D3
:1023E800022201A90068FFF775FAFFF717FF03B08B
:1023F8005DF804FB3800002030B583B00D469D23FE
:102408008DF804308DF80500FFF7FEFE0D4C2068AE
:102418006423022201A90068FFF75CFAFFF7FEFEB9
:102428009E238DF804308DF80550FFF7EDFE2068E7
:102438006423022201A90068FFF74CFAFFF7EEFEB9
:1024480003B030BD3800002000B583B0A2238DF85A
:1024580004308DF80500FFF7D7FE064B1868642393
:10246800022201A90068FFF735FAFFF7D7FE03B08B
:102478005DF804FB3800002000B583B0A3238DF875
:1024880004308DF80500FFF7BFFE064B186864237B
:10249800022201A90068FFF71DFAFFF7BFFE03B08B
:1024A8005DF804FB3800002000B583B0B1238DF837
:1024B80004308DF80500FFF7A7FE064B1868642363
:1024C800022201A90068FFF705FAFFF7A7FE03B08B
:1024D8005DF804FB3800002000B583B0B9238DF8FF
:1024E80004308DF80500FFF78FFE064B186864234B
:1024F800022201A90068FFF7EDF9FFF78FFE03B08C
:102508005DF804FB3800002000B583B0C0238DF8C7
:1025180004308DF80500FFF777FE064B1868642332
:10252800022201A90068FFF7D5F9FFF777FE03B08B
:102538005DF804FB3800002000B583B092238DF8C5
:102548000430FF238DF80530FFF75EFE064B186850
:102558006423022201A90068FFF7BCF9FFF75EFEB9
:1025680003B05DF804FB00BF3800002008B58020E8
:10257800FFF75EFE08BD000008B5154B1860002285
:1025880001211448FEF7AAFD0A20FEF741FC2B2082
:10259800FFF7D2FE0020FFF74BFEFFF7E7FF812091
:1025A800FFF746FEC4212220FFF726FF4020FFF751
:1025B80063FF2420FFF748FF0748FFF751FE02207A
:1025C800FFF78AFEFFF7B8FF0020FFF7E5FE08BD1A
:1025D800380000200000024014EEE30010B582B07D
:1025E80010238DF8073000238DF80630FFF70CFE16
:1025F8000B4C2068642301220DF107010068FFF7E6
:1026080069F92068642301220DF106010068FFF7CB
:1026180058FBFFF703FE9DF8060002B010BD00BF8F
:102628003800002030B583B000238DF8073002ACA5
:10263800122304F8023DFFF7E7FD0B4D28686423D9
:10264800012221460068FFF745F928686423012222
:102658000DF107010068FFF734FBFFF7DFFD9DF878
:10266800070003B030BD00BF3800002030B583B08C
:1026780001248DF8074000238DF80630FFF7C4FDCC
:102688000B4D2868642322460DF107010068FFF707
:1026980021F92868642322460DF106010068FFF736
:1026A80010FBFFF7BBFD9DF8060003B030BD00BF6F
:1026B8003800002010B582B013238DF80730FF23AF
:1026C8008DF80630FFF7A0FD0B4C2068642301222B
:1026D8000DF107010068FFF7FDF820686423012267
:1026E8000DF106010068FFF7ECFAFFF797FD9DF87A
:1026F800060002B010BD00BF380000200023072BE1
:1027080014DC10B406E0400080B24900C9B20133BD
:10271800072B08DC81EA202414F0800FF3D0400056
:1027280080B25040F1E75DF8044B704770472DE9DF
:10273800F04106460D469046012A08D041F221078D
:10274800B8F1010F06D041F60F5000240AE048F214
:102758000507F5E74FF6FF70F7E73A46315DFFF7F3
:10276800CDFF0134AC42F8DBB8F1010F01D0C04312
:1027780080B2BDE8F0810000402901D901207047EE
:102788002DE9F04F85B000AF0C460546FFF76EFF08
:1027980006460320FFF788FE0920FFF7B5FD232032
:1027A800FFF7E2FD3420FFF797FEC020FFF7ACFEED
:1027B800FFF7C2FE0020FFF707FEFFF70FFF814675
:1027C800FFF7EAFDA01CC0B2FFF73EFE8520FFF729
:1027D8002FFDFFF727FF804605E0FFF723FF804620
:1027E8000A20FEF715FB18F0100FF6D005E0FFF7EA
:1027F80019FF80460A20FEF70BFB18F0400FF6D0B1
:1028080018F0200F0CD00020FFF7C6FD3046FFF768
:102818000FFDFFF791FE04201437BD46BDE8F08F89
:10282800FFF748FFA0EB0900A046A31C984201D07F
:102838000320F1E7C7F804D004F1010904F1090302
:1028480023F00703ADEB030DEB46FFF7DDFC07F1C3
:102858001001002301F8013DDFF870A0DAF800004C
:10286800642301220068FFF735F8DAF800006423D2
:10287800A21C69460068FFF724FAFFF7CFFC1DF891
:1028880004301DF8099049EA0329012220210DF19D
:102898000200FFF74CFF814503D00520D7F804D08C
:1028A800BAE79DF800309C4201D00220F6E70023E9
:1028B80003E01BF80320EA5401334345F9DB3046B3
:1028C800FFF7B6FCFFF738FE0020E7E738000020E6
:1028D8000F49D1F8883043F47003C1F888300D4BA4
:1028E8001A6842F001021A60002098601A6822F003
:1028F800847222F480321A60074A5A601A6822F4F5
:1029080080221A60D8604FF000638B60704700BF68
:1029180000ED00E00038024010300024DFF834D029
:10292800002103E00C4B5B58435004310B480C4B1F
:1029380042189A42F6D30B4A02E0002342F8043BBD
:10294800094B9A42F9D3FFF7C3FF00F011F8FFF7DC
:1029580043FB704700000220102A000800000020F6
:102968001000002010000020F4000020FEE7000006
:1029780070B50D4E0D4CA41BA4100025A54209D11D
:102988000B4E0C4C00F018F8A41BA4100025A5420F
:1029980005D170BD56F8253098470135EEE756F851
:1029A800253098470135F2E7082A0008082A000868
:1029B800082A00080C2A0008F8B500BFF8BC08BCB3
:1029C8009E467047F8B500BFF8BC08BC9E467047E5
:1029D80000000000000000000102030406070809C7
:1029E80000000000010203042E2E2F5372632F6D86
:0829F80061696E2E630000000E
:082A000098E0FF7F01000000D7
:042A0800ED010008D4
:042A0C00C9010008F4
:102A10000100000010000000FF0000000024F4008E
:0400000508002925A1
:00000001FF
